{
  "contractName": "Dpi",
  "abi": [
    {
      "inputs": [],
      "payable": false,
      "stateMutability": "nonpayable",
      "type": "constructor"
    },
    {
      "anonymous": false,
      "inputs": [
        {
          "indexed": false,
          "internalType": "uint256",
          "name": "id",
          "type": "uint256"
        },
        {
          "indexed": false,
          "internalType": "string",
          "name": "content",
          "type": "string"
        },
        {
          "indexed": false,
          "internalType": "uint256",
          "name": "tipAmout",
          "type": "uint256"
        },
        {
          "indexed": false,
          "internalType": "address payable",
          "name": "author",
          "type": "address"
        }
      ],
      "name": "PostTipped",
      "type": "event"
    },
    {
      "anonymous": false,
      "inputs": [
        {
          "indexed": false,
          "internalType": "uint256",
          "name": "iid",
          "type": "uint256"
        },
        {
          "indexed": false,
          "internalType": "string",
          "name": "content",
          "type": "string"
        },
        {
          "indexed": false,
          "internalType": "uint256",
          "name": "tipAmout",
          "type": "uint256"
        },
        {
          "indexed": false,
          "internalType": "address payable",
          "name": "author",
          "type": "address"
        }
      ],
      "name": "drugAddet",
      "type": "event"
    },
    {
      "constant": true,
      "inputs": [
        {
          "internalType": "uint256",
          "name": "",
          "type": "uint256"
        }
      ],
      "name": "Patients",
      "outputs": [
        {
          "internalType": "uint256",
          "name": "id",
          "type": "uint256"
        },
        {
          "internalType": "string",
          "name": "name",
          "type": "string"
        },
        {
          "internalType": "string",
          "name": "prenom",
          "type": "string"
        },
        {
          "internalType": "string",
          "name": "adress",
          "type": "string"
        },
        {
          "internalType": "string",
          "name": "mobile",
          "type": "string"
        },
        {
          "internalType": "string",
          "name": "medcin",
          "type": "string"
        },
        {
          "internalType": "string",
          "name": "date",
          "type": "string"
        }
      ],
      "payable": false,
      "stateMutability": "view",
      "type": "function"
    },
    {
      "constant": true,
      "inputs": [],
      "name": "drugCount",
      "outputs": [
        {
          "internalType": "uint256",
          "name": "",
          "type": "uint256"
        }
      ],
      "payable": false,
      "stateMutability": "view",
      "type": "function"
    },
    {
      "constant": true,
      "inputs": [
        {
          "internalType": "uint256",
          "name": "",
          "type": "uint256"
        }
      ],
      "name": "drugs",
      "outputs": [
        {
          "internalType": "uint256",
          "name": "iid",
          "type": "uint256"
        },
        {
          "internalType": "string",
          "name": "content",
          "type": "string"
        },
        {
          "internalType": "uint256",
          "name": "tipAmout",
          "type": "uint256"
        },
        {
          "internalType": "address payable",
          "name": "author",
          "type": "address"
        }
      ],
      "payable": false,
      "stateMutability": "view",
      "type": "function"
    },
    {
      "constant": true,
      "inputs": [],
      "name": "patientCount",
      "outputs": [
        {
          "internalType": "uint256",
          "name": "",
          "type": "uint256"
        }
      ],
      "payable": false,
      "stateMutability": "view",
      "type": "function"
    },
    {
      "constant": true,
      "inputs": [
        {
          "internalType": "address",
          "name": "",
          "type": "address"
        }
      ],
      "name": "voters",
      "outputs": [
        {
          "internalType": "bool",
          "name": "",
          "type": "bool"
        }
      ],
      "payable": false,
      "stateMutability": "view",
      "type": "function"
    },
    {
      "constant": false,
      "inputs": [
        {
          "internalType": "string",
          "name": "content",
          "type": "string"
        }
      ],
      "name": "addDrug",
      "outputs": [],
      "payable": false,
      "stateMutability": "nonpayable",
      "type": "function"
    },
    {
      "constant": false,
      "inputs": [
        {
          "internalType": "uint256",
          "name": "id",
          "type": "uint256"
        }
      ],
      "name": "tipdurg",
      "outputs": [],
      "payable": true,
      "stateMutability": "payable",
      "type": "function"
    }
  ],
  "bytecode": "0x608060405260006004553480156200001657600080fd5b50620000ff6040518060400160405280600c81526020017f4153534f554c41494d414e4900000000000000000000000000000000000000008152506040518060400160405280600481526020017f41736d61000000000000000000000000000000000000000000000000000000008152506040518060400160405280600d81526020017f54696c696c612c416761646972000000000000000000000000000000000000008152506040518060400160405280600d81526020017f2b323132363237313433393535000000000000000000000000000000000000008152506200010560201b60201c565b62000346565b6003600081548092919060010191905055506040518060e00160405280600181526020018581526020018481526020018381526020018281526020016040518060400160405280600481526020017f4d722e580000000000000000000000000000000000000000000000000000000081525081526020016040518060400160405280600d81526020017f6c652030332f30352f3230323000000000000000000000000000000000000000815250815250600160006003548152602001908152602001600020600082015181600001556020820151816001019080519060200190620001f292919062000297565b5060408201518160020190805190602001906200021192919062000297565b5060608201518160030190805190602001906200023092919062000297565b5060808201518160040190805190602001906200024f92919062000297565b5060a08201518160050190805190602001906200026e92919062000297565b5060c08201518160060190805190602001906200028d92919062000297565b5090505050505050565b828054600181600116156101000203166002900490600052602060002090601f016020900481019282601f10620002da57805160ff19168380011785556200030b565b828001600101855582156200030b579182015b828111156200030a578251825591602001919060010190620002ed565b5b5090506200031a91906200031e565b5090565b6200034391905b808211156200033f57600081600090555060010162000325565b5090565b90565b6111c380620003566000396000f3fe6080604052600436106100705760003560e01c8063a0303c411161004e578063a0303c4114610196578063a1982835146101c1578063a3ec138d14610498578063fca5e61e1461050157610070565b8063223883de14610075578063697e82b81461013d5780637577ca371461016b575b600080fd5b34801561008157600080fd5b5061013b6004803603602081101561009857600080fd5b81019080803590602001906401000000008111156100b557600080fd5b8201836020820111156100c757600080fd5b803590602001918460018302840111640100000000831117156100e957600080fd5b91908080601f016020809104026020016040519081016040528093929190818152602001838380828437600081840152601f19601f8201169050808301925050505050505091929192905050506105f6565b005b6101696004803603602081101561015357600080fd5b810190808035906020019092919050505061082f565b005b34801561017757600080fd5b50610180610bc5565b6040518082815260200191505060405180910390f35b3480156101a257600080fd5b506101ab610bcb565b6040518082815260200191505060405180910390f35b3480156101cd57600080fd5b506101fa600480360360208110156101e457600080fd5b8101908080359060200190929190505050610bd1565b6040518088815260200180602001806020018060200180602001806020018060200187810387528d818151815260200191508051906020019080838360005b83811015610254578082015181840152602081019050610239565b50505050905090810190601f1680156102815780820380516001836020036101000a031916815260200191505b5087810386528c818151815260200191508051906020019080838360005b838110156102ba57808201518184015260208101905061029f565b50505050905090810190601f1680156102e75780820380516001836020036101000a031916815260200191505b5087810385528b818151815260200191508051906020019080838360005b83811015610320578082015181840152602081019050610305565b50505050905090810190601f16801561034d5780820380516001836020036101000a031916815260200191505b5087810384528a818151815260200191508051906020019080838360005b8381101561038657808201518184015260208101905061036b565b50505050905090810190601f1680156103b35780820380516001836020036101000a031916815260200191505b50878103835289818151815260200191508051906020019080838360005b838110156103ec5780820151818401526020810190506103d1565b50505050905090810190601f1680156104195780820380516001836020036101000a031916815260200191505b50878103825288818151815260200191508051906020019080838360005b83811015610452578082015181840152602081019050610437565b50505050905090810190601f16801561047f5780820380516001836020036101000a031916815260200191505b509d505050505050505050505050505060405180910390f35b3480156104a457600080fd5b506104e7600480360360208110156104bb57600080fd5b81019080803573ffffffffffffffffffffffffffffffffffffffff169060200190929190505050610fa3565b604051808215151515815260200191505060405180910390f35b34801561050d57600080fd5b5061053a6004803603602081101561052457600080fd5b8101908080359060200190929190505050610fc3565b60405180858152602001806020018481526020018373ffffffffffffffffffffffffffffffffffffffff1673ffffffffffffffffffffffffffffffffffffffff168152602001828103825285818151815260200191508051906020019080838360005b838110156105b857808201518184015260208101905061059d565b50505050905090810190601f1680156105e55780820380516001836020036101000a031916815260200191505b509550505050505060405180910390f35b600081511161066d576040517f08c379a00000000000000000000000000000000000000000000000000000000081526004018080602001828103825260108152602001807f73686f756c64206861766520647275670000000000000000000000000000000081525060200191505060405180910390fd5b60046000815480929190600101919050555060405180608001604052806004548152602001828152602001600081526020013373ffffffffffffffffffffffffffffffffffffffff168152506002600060045481526020019081526020016000206000820151816000015560208201518160010190805190602001906106f49291906110ab565b506040820151816002015560608201518160030160006101000a81548173ffffffffffffffffffffffffffffffffffffffff021916908373ffffffffffffffffffffffffffffffffffffffff1602179055509050507f7ca8e8a9eeb266d7a3bcf63f30843bab34afd06a21eda05cca80f950e3ed70a26004548260003360405180858152602001806020018481526020018373ffffffffffffffffffffffffffffffffffffffff1673ffffffffffffffffffffffffffffffffffffffff168152602001828103825285818151815260200191508051906020019080838360005b838110156107ef5780820151818401526020810190506107d4565b50505050905090810190601f16801561081c5780820380516001836020036101000a031916815260200191505b509550505050505060405180910390a150565b60008111801561084157506004548111155b6108b3576040517f08c379a00000000000000000000000000000000000000000000000000000000081526004018080602001828103825260098152602001807f696420656e61626c65000000000000000000000000000000000000000000000081525060200191505060405180910390fd5b6108bb61112b565b6002600083815260200190815260200160002060405180608001604052908160008201548152602001600182018054600181600116156101000203166002900480601f01602080910402602001604051908101604052809291908181526020018280546001816001161561010002031660029004801561097c5780601f106109515761010080835404028352916020019161097c565b820191906000526020600020905b81548152906001019060200180831161095f57829003601f168201915b50505050508152602001600282015481526020016003820160009054906101000a900473ffffffffffffffffffffffffffffffffffffffff1673ffffffffffffffffffffffffffffffffffffffff1673ffffffffffffffffffffffffffffffffffffffff168152505090506000816060015190508073ffffffffffffffffffffffffffffffffffffffff166108fc349081150290604051600060405180830381858888f19350505050158015610a36573d6000803e3d6000fd5b50348260400151018260400181815250508160026000858152602001908152602001600020600082015181600001556020820151816001019080519060200190610a819291906110ab565b506040820151816002015560608201518160030160006101000a81548173ffffffffffffffffffffffffffffffffffffffff021916908373ffffffffffffffffffffffffffffffffffffffff1602179055509050507f20988fe475351e75813672abada1dddb7ac67cbbeb81e61e1160b8329d8cdf1c600454836020015184604001518460405180858152602001806020018481526020018373ffffffffffffffffffffffffffffffffffffffff1673ffffffffffffffffffffffffffffffffffffffff168152602001828103825285818151815260200191508051906020019080838360005b83811015610b83578082015181840152602081019050610b68565b50505050905090810190601f168015610bb05780820380516001836020036101000a031916815260200191505b509550505050505060405180910390a1505050565b60045481565b60035481565b6001602052806000526040600020600091509050806000015490806001018054600181600116156101000203166002900480601f016020809104026020016040519081016040528092919081815260200182805460018160011615610100020316600290048015610c835780601f10610c5857610100808354040283529160200191610c83565b820191906000526020600020905b815481529060010190602001808311610c6657829003601f168201915b505050505090806002018054600181600116156101000203166002900480601f016020809104026020016040519081016040528092919081815260200182805460018160011615610100020316600290048015610d215780601f10610cf657610100808354040283529160200191610d21565b820191906000526020600020905b815481529060010190602001808311610d0457829003601f168201915b505050505090806003018054600181600116156101000203166002900480601f016020809104026020016040519081016040528092919081815260200182805460018160011615610100020316600290048015610dbf5780601f10610d9457610100808354040283529160200191610dbf565b820191906000526020600020905b815481529060010190602001808311610da257829003601f168201915b505050505090806004018054600181600116156101000203166002900480601f016020809104026020016040519081016040528092919081815260200182805460018160011615610100020316600290048015610e5d5780601f10610e3257610100808354040283529160200191610e5d565b820191906000526020600020905b815481529060010190602001808311610e4057829003601f168201915b505050505090806005018054600181600116156101000203166002900480601f016020809104026020016040519081016040528092919081815260200182805460018160011615610100020316600290048015610efb5780601f10610ed057610100808354040283529160200191610efb565b820191906000526020600020905b815481529060010190602001808311610ede57829003601f168201915b505050505090806006018054600181600116156101000203166002900480601f016020809104026020016040519081016040528092919081815260200182805460018160011615610100020316600290048015610f995780601f10610f6e57610100808354040283529160200191610f99565b820191906000526020600020905b815481529060010190602001808311610f7c57829003601f168201915b5050505050905087565b60006020528060005260406000206000915054906101000a900460ff1681565b6002602052806000526040600020600091509050806000015490806001018054600181600116156101000203166002900480601f0160208091040260200160405190810160405280929190818152602001828054600181600116156101000203166002900480156110755780601f1061104a57610100808354040283529160200191611075565b820191906000526020600020905b81548152906001019060200180831161105857829003601f168201915b5050505050908060020154908060030160009054906101000a900473ffffffffffffffffffffffffffffffffffffffff16905084565b828054600181600116156101000203166002900490600052602060002090601f016020900481019282601f106110ec57805160ff191683800117855561111a565b8280016001018555821561111a579182015b828111156111195782518255916020019190600101906110fe565b5b5090506111279190611169565b5090565b6040518060800160405280600081526020016060815260200160008152602001600073ffffffffffffffffffffffffffffffffffffffff1681525090565b61118b91905b8082111561118757600081600090555060010161116f565b5090565b9056fea265627a7a72315820a04e0b0c4054274c48e2f9938b4d9549284bbda4a96a14640bf28ae974da432464736f6c63430005100032",
  "source": "pragma solidity >=0.4.21 <0.7.0;\r\ncontract Dpi {\r\n    // Model a Candidate\r\n    struct patient {\r\n        uint id;\r\n        string name;\r\n        string prenom;\r\n        string adress;\r\n        string mobile;\r\n        string medcin;\r\n        string date;\r\n    }\r\n    struct drug {\r\n        uint iid;\r\n        string content;\r\n        uint tipAmout;\r\n        address payable author;\r\n    }\r\n    // Store accounts that have voted\r\n    mapping(address => bool) public voters;\r\n    // Store Candidates\r\n    // Fetch Candidate\r\n    mapping(uint => patient) public Patients;\r\n    mapping(uint => drug) public drugs;\r\n\r\n    // Store Candidates Count\r\n    uint public patientCount;\r\n    uint public drugCount =0;\r\n    event drugAddet(\r\n        uint iid,\r\n        string content,\r\n        uint tipAmout,\r\n        address payable author\r\n\r\n    );\r\n    event PostTipped(\r\n        uint id,\r\n        string content,\r\n        uint tipAmout,\r\n        address payable author\r\n    );\r\n    // voted event\r\n    /*event votedEvent (\r\n        uint indexed _candidateId\r\n    );*/\r\n\r\n    constructor () public {\r\n        addPatient(\"ASSOULAIMANI\", \"Asma\",\"Tilila,Agadir\",\"+212627143955\");\r\n    }\r\n\r\n    function addPatient (string memory  name,string memory  prenom,\r\n    string memory  adress, string memory  mobile)private {\r\n        patientCount ++;\r\n        Patients[patientCount] = patient(1, name,prenom,adress,mobile,\"Mr.X\", \"le 03/05/2020\");\r\n    }\r\n\r\n    function addDrug (string memory content) public {\r\n        //require valid content\r\n        require (bytes(content).length > 0, \"should have drug\");\r\n        drugCount ++;\r\n        //adding a drug ;\r\n        drugs[drugCount] = drug(drugCount,content,0,msg.sender);\r\n        //Trigger event\r\n        emit drugAddet(drugCount,content,0,msg.sender);\r\n    }\r\n\r\n    /*function vote (uint _candidateId) public {\r\n        // require that they haven't voted before\r\n        require(!voters[msg.sender]);\r\n\r\n        // require a valid candidate\r\n        require(_candidateId > 0 && _candidateId <= candidatesCount);\r\n\r\n        // record that voter has voted\r\n        voters[msg.sender] = true;\r\n\r\n        // update candidate vote Count\r\n        candidates[_candidateId].voteCount ++;\r\n\r\n        // trigger voted event\r\n        emit votedEvent(_candidateId);\r\n    }*/\r\n    function tipdurg(uint id) public payable {\r\n        // Make sure the id is valid\r\n        require(id > 0 && id <= drugCount, \"id enable\");\r\n        // Fetch the post\r\n        drug memory druug = drugs[id];\r\n        // Fetch the author\r\n        address payable  authour = druug.author;\r\n        // Pay the author by sending them Ether\r\n\r\n       address(uint160(authour)).transfer(msg.value);\r\n        // Incremet the tip amount\r\n        druug.tipAmout = druug.tipAmout + msg.value;\r\n        // Update the post\r\n        drugs[id] = druug;\r\n        // Trigger an event\r\n        emit PostTipped(drugCount, druug.content, druug.tipAmout, authour);\r\n    }\r\n}",
  "sourcePath": "C:\\Users\\pc\\patient\\contracts\\Dpi.sol",
  "compiler": {
    "name": "solc",
    "version": "0.5.16+commit.9c3226ce.Emscripten.clang"
  },
  "schemaVersion": "3.1.0",
  "updatedAt": "2020-05-06T05:05:49.224Z",
  "networkType": "ethereum",
  "devdoc": {
    "methods": {}
  },
  "userdoc": {
    "methods": {}
  }
}